S012000048756D6D696E674269742E737265631E
S113080058070020A5340000A1340000A1340000E2
S113081000000000000000000000000000000000D4
S1130820000000000000000000000000A1340000EF
S11308300000000000000000A1340000A13400000A
S1130840A1340000A1340000A1340000A134000050
S1130850292B0000A1340000A13400000000000096
S1130860A1340000F92A0000092B0000192B000014
S1130870BD240000792A0000892A00002516000002
S1130880A1340000A1340000A134000010B5064CCE
S11308902378002B07D1054B002B02D0044800E03D
S11308A000BF0123237010BD74000020000000006D
S11308B0403C0000084B10B5002B03D00749084802
S11308C000E000BF07480368002B00D110BD064BB1
S11308D0002BFBD09847F9E70000000078000020C7
S11308E0403C0000403C00000000000070B50500E2
S11308F0046820000E4B98471F2318401E3B83407A
S113090080220C498B502A68D369002BFCD18F3389
S11309102375237623680222934323602A68D369CC
S1130920002BFCD1236801221343236070BDC04611
S1130930D92A000000E100E0F0B58BB005000C00FE
S1130940160029600B681C209B0701D50BB0F0BD75
S11309500B681738DB07F9D408006F4B98476F4AC8
S1130960116A871C0123BB400B43136209A9242786
S1130970F35D0B700E30C3B201931800684B9847B7
S11309800198684B9847F05D0021674B984733788E
S1130990012B3FD03378002B03D123680822134363
S11309A023602B000C3329002831002204C38B421E
S11309B0FCD10023EB62AB620024AB862B8636337A
S11309C0EC540133EC540133EC54353B6B722C7111
S11309D02868514B984707005449554B9847BF0026
S11309E0544BFD502F6804AB80221A705C707F3A20
S11309F09A70DC703378002B02D1002204AB9A7019
S1130A00B36A0593F36A0693336B0793736B089386
S1130A1000240BE023680C2213432360BAE7380058
S1130A20454B98470AE00134042C10D0E1B2A300EE
S1130A3002AA0C201218D0580028F0D0431CF2D07F
S1130A4004A90870000CC0B23C4B9847EBE733781C
S1130A506B71337CAB71B37CEB71337D2B720022F1
S1130A6002ABDA803378012B12D03378002B26D1F5
S1130A70B069B28B7B6AF17F0904B47F21431943C7
S1130A8079622023F35C002B1BD040231A4318E027
S1130A902868214B98470E30C0B2294B9847010073
S1130AA002AB9A1DB069274B984703001720002B0F
S1130AB000D04BE702AB06331B783B73D5E700222B
S1130AC000207368B1680B43F1680B430343317C26
S1130AD00A43717C002903D11B498978890701D510
S1130AE080210B43B17C002902D0802189020A4372
S1130AF0F17C002902D0802189000A43317D00293C
S1130B0002D0802189010A4339680B433B607B682A
S1130B101A437A60002019E79D1800000004004081
S1130B20053300007932000091170000AD0B00007E
S1130B309D2A0000B4020020DD170000FD330000F0
S1130B40213300006917000000200041931C9B0022
S1130B50C31859603621012393401A00435C1343A0
S1130B604354704730B51724002B01D1200030BD09
S1130B70C5790534002DF9D01C34055D333C052DB1
S1130B80F4D0838603868262C16205223823C2546C
S1130B90363B437203689A7580321A764279002490
S1130BA0002AE3D102321A769A75DFE7F8B580009D
S1130BB05C4BC5582E683723EF5C3622AA5C17407D
S1130BC0337EB47D1C40E30714D56B79002B11D11F
S1130BD06B7A002B0ED0EB6A1A780133EB62B262A7
S1130BE0AB8E013B9BB2AB86AB8E9BB2002B01D18B
S1130BF001333375630705D5738B5B0720D5B36A5F
S1130C0004237383A3070BD56B79002B13D1012223
S1130C10454B1A706B7A022B00D16DE002233376B8
S1130C20230708D56B79002B05D108333375337648
S1130C30BB0600D567E064B2002C00DA67E0F8BDBB
S1130C40B36ADBB2AA6A1370A96A4B1CAB622B8E1F
S1130C50013B9BB22B86354A13780133DBB2137008
S1130C60012B1DD02B8E9BB2002BCBD12F4A13709E
S1130C702F4A13702F4A13702F4A13702F4A137080
S1130C803822AB54043333756B7A022B2DD06B7A34
S1130C90002BB7D1BB07B5D528002B699847B1E71E
S1130CA00122234B1A700023234A1370234A137022
S1130CB00B78DBB2CA2B0FD00B78DBB2CC2B0BD06A
S1130CC00B78DBB28C2BCDD18B3BEA6A1370EA6ACA
S1130CD05370184A1370C5E7AB8E09339BB2AB86C9
S1130CE02B8E09339BB22B86BCE77B0700D489E7A4
S1130CF028006B69984785E77B0700D48EE72800B6
S1130D006B6998478AE728002B6A984793E7802302
S1130D10337533767B0600D491E76B6A28009847D5
S1130D208DE7C046B4020020F100002090000020AE
S1130D30F2000020ED000020EF000020F000002071
S1130D4010B50E4B1B78002B03D00D4B1B78002BDA
S1130D5000D110BD00230B4A1370094A1370074ACF
S1130D601370094C2000094B9847094B98470423FA
S1130D70084A09492000094CA047EAE7F20000208C
S1130D80EF000020F000002000010020ED0800002A
S1130D9051100000E0020020F4020020650B000066
S1130DA0F0B5C64600B586B0102217236B441A70FE
S1130DB0454B78321A7022325A7011329A701132BD
S1130DC0DA70424B9847424B1B78002B09D0414ABA
S1130DD013781278D2B23F218B43C02B05D03E4BFF
S1130DE0984706B004BC9046F0BD813B1A40D3B28C
S1130DF00B2BF4D89200394B9B589F46354B5978AE
S1130E00C9B23120364B9847E9E7324B5978C9B219
S1130E103220334B9847E2E72E4B5978C9B29A787F
S1130E20D2B2DB78DBB231202E4CA047D7E7294B76
S1130E305978C9B29A78D2B2DB78DBB23220294C25
S1130E40A047CCE7234B5978C9B23120264B9847A9
S1130E50C5E7204B5978C9B23220234B9847BEE7E7
S1130E601C4B5978C9B233201F4B9847B7E7194B2D
S1130E705978C9B234201C4B9847B0E7154CE07838
S1130E80C0B22179C9B26279D2B2A379DBB29846F1
S1130E90E579267A6778A3780393029701960095FB
S1130EA04346124DA847607AC0B2A17AC9B2E27A29
S1130EB0D2B2237BDBB20E4CA04790E70D4B984790
S1130EC00D4B98478BE7C04634030020410D0000CA
S1130ED0F300002010030020A10F00003C3A0000A2
S1130EE0A1190000491900006D1E0000D51800006A
S1130EF08D1D0000F5190000591E000070B58EB05C
S1130F00002401940294C0239B0303936B461C7436
S1130F105C7401259D74DD741C7524236A46D454C5
S1130F200C22002106A8144B98476B461C70202302
S1130F306A46D5540694114B0A93114B0B93114BEB
S1130F400C93114B0D93114E11493000114B9847DE
S1130F5034682000104B98471F23184085400F4BDE
S1130F601D603268D369002BFCD12368022213432D
S1130F7023600EB070BDC046473900000200160061
S1130F8002001700020018000200190000010020EE
S1130F90000C004239090000D92A000000E100E0F9
S1130FA010B51C4B1B781C4A1278DBB2934218D044
S1130FB0184B1B78DBB2194AD35CDBB20022CA2B74
S1130FC017D01449154C16480B78DBB2E35CDBB23E
S1130FD083540B780133DBB20B700132042AF3D152
S1130FE010BD00230F4A13700A4A13700A4A137083
S1130FF0F6E70849094C0A480B78DBB2E35CDBB23C
S113100083540B780133DBB20B7001320D2AF3D118
S1131010E6E7C04693000020910000203C01002038
S113102010030020F300002010B5064C02220649EC
S11310302000064B98473722A35C04210B43A3549A
S113104010BDC04600010020B11000004D0B00008F
S1131050F0B583B010226B46DA710E4B98470E4BF5
S113106098470E4B1B78002B11D101220B4B1A70A1
S11310700B4E0C4D0C4C04233200290020000B4F66
S1131080B8476B46D87107331B78002BF3D103B0F4
S1131090F0BDC046FD0E00002910000092000020A3
S11310A0E0020020F402002000010020650B000093
S11310B070B50122234B1A700022234B1A70234B64
S11310C01B78002B1ED1224B1B78DBB20022CA2BCB
S11310D027D020481E4D204C0378DBB2A95CC9B24E
S11310E0E15403780133DBB203700132042AF3D1F3
S11310F000221A4B1A700423154A194919481A4C2C
S1131100A04770BD114B1A70164C2000174B98471E
S1131110174B984704230E4A11492000124CA0474C
S1131120EFE70C480A4D0C4C0378DBB2A95CC9B25A
S1131130E15403780133DBB2037001320D2AF3D199
S1131140D6E7C046F3000020F0000020F1000020A4
S1131150E0020020910000203C0100200D0000204E
S1131160F402002000010020650B0000ED080000DF
S11311705110000070B50020084B98470500084C3A
S1131180FA218900A047074B186007492800A047A7
S1131190064B18600522064B1A6070BDED31000045
S11311A0ED3500000000002040420F000400002044
S11311B010E000E010B5002200230270427000210C
S11311C04280017103760262C26182600373C024AB
S11311D06401C481037443748374C37403752A243F
S11311E0035543758375063C0355C2840285C17556
S11311F02B23C1540133C15410BD0000F0B5D646B1
S11312004F464646C0B596B0070016000160C64A70
S1131210106A80235B00034313620B780520DB070D
S113122005D516B01CBC90469946A246F0BD0B7875
S113123017309B07F5D473783B71002B04D1BB4A5C
S1131240136C04210B4313640023BB60FB603B61FC
S1131250BB76FB763B833B77B54B1F602A23F35C5D
S1131260002B05D1337D002B02D101337B7701E0C4
S113127000237B773B68984633786A461370694647
S11312801320AC4B98471320AB4B98472C23F25CAC
S1131290002A54D0013BF55C337BEB18DBB2D11848
S11312A0C9B28B4221D25219D3B29946A34B9A4662
S11312B003E00135EDB24D4517D00F242C40337BAC
S11312C0E41850229E4902A8D047092CF1D8A40062
S11312D002ABE05801A900234B70CB708B70013333
S11312E00B70C0B2974B9847E3E7F48950229449B6
S11312F002A8924B9847092C13D9737D9B00DBB24B
S113130042461370B37DDB0172781343DBB242466D
S113131053703379342B00D97BE19B008A4AD3582C
S11313209F46A40002ABE05801A900234B70CB7088
S11313308B7001330B70C0B2824B9847DDE7347B6E
S113134050227F4902A87D4B9847092C15D9F4896E
S113135050227B4902A8794B9847092CCDD8A40088
S113136002ABE05801A900234B70CB708B700133A2
S11313700B70C0B2734B9847BFE7A40002ABE058B0
S113138001A900234B70CB708B7001330B70C0B27A
S11313906C4B9847DBE70423102402211AE0717C8C
S11313A0337C102416E006231024012112E00823C4
S11313B0102400210EE00023302400210AE0002341
S11313C02024002106E000230024002102E002235F
S11313D010240121090170220A40134342469370EC
S11313E0F37D17203F2B00D91BE7D3703A68537E57
S11313F05BB2002BFBDBF37C728813432422B25CC8
S1131400D2001343327D92001343B27C5200134343
S1131410234342469380337E002B20D0102C00D1EE
S1131420D9E000D898E0202C00D1B6E0302C16D1B9
S1131430F27C002A0AD0F26980321720FF2A00D9F0
S1131440EFE6326A8032FF2A00D9EAE61720F26911
S1131450FF2A00DDE5E6326AFF2A00DDE1E63968AD
S11314604A7E52B2002AFBDB424613723A68537E2C
S11314705BB2002BFBDBB38B424693833A68537E0B
S11314805BB2002BFBDB338C424613842C23F35CCE
S1131490002B05D0013BDBB217200F2B00D9C0E68F
S11314A02B22B15C17200F2900D9BAE63868427E96
S11314B052B2002AFBDBF289307B0243B06802435C
S11314C009050A431B041343424613612A23F35CB0
S11314D013750F2393751533F35C002B12D0F38C23
S11314E01A4A1720934200D99BE642469384328DD0
S11314F080231B01D31815499BB28B4200D990E677
S11315004346DA84124B1B685B01E022D20013408D
S1131510104A516849011268D20E0A43D2B21343E9
S11315204246138500207CE6000400400008004089
S11315300402002005330000793200003539000030
S1131540403B0000FD3300006C3A0000FF0F000038
S11315502460800020608000002C00D07FE7F27CB3
S1131560002A0FD0F269802109018C4662442A497D
S113157017208A4200D954E6326A624426498A42D4
S113158000D94EE6244A1720F169914200DD48E66D
S1131590316A914200DD44E661E7F27C002A0FD013
S11315A0F269802189008C4662441C4917208A42D2
S11315B000D936E6326A624418498A4200D930E6D4
S11315C0164A1720F169914200DD2AE6316A9142F8
S11315D000DD26E643E7F27C002A0FD0F269802181
S11315E009028C4662440E4917208A4200D918E643
S11315F0326A62440A498A4200D912E6084A17202C
S1131600F169914200DD0CE6316A914200DD08E6A1
S113161025E7172005E6C046FF0F0000FF03000082
S1131620FFFF000070B52E4B1C6823681D7EEDB2D1
S1131630EA0705D5E27ED20702D5A27ED20716D4E8
S11316406B0708D5042322681376E37E9B0702D533
S1131650A37E9B073CD4AB0708D5022322681376EC
S1131660E37E5B0702D5A37E5B0735D470BD012200
S11316701A762268537E5BB2002BFBDB61698B1CFC
S11316806361538B9BB20B80238B013B9BB22383FF
S1131690002B11D0637F002BD2D02268537E5BB223
S11316A0002BFBDB137B02210B4313732268537E55
S11316B05BB2002BFBDBC3E7237F052BC0D10023E8
S11316C023770133226893752000A3689847B7E70E
S11316D02000E3689847BEE7236920009847C5E7E0
S11316E004020020044A137802210B431370537838
S11316F05BB2002BFBDB70470018004000B583B0E1
S1131700124A936940210B43936101A900230B7092
S113171005200F4B984705200E4B98470E4A137827
S113172001210B43137053785BB2002BFBDB0B4B93
S113173019004031002204C39942FCD11022084B05
S11317401A60084B984703B000BDC046000400402F
S11317500533000079320000001800400802002020
S113176000E100E0E516000010B54908402300241C
S1131770814202D2180010BD1C00091A631C9BB2DE
S11317808842F9D94023FF2CF4D814800023F1E7D0
S113179010B582B004000E4B1B78002B07D0002933
S11317A005D10B4B5B78834210D01D200CE001A9BE
S11317B00C700D20074B98470D20074B9847044B9E
S11317C05C7001221A70002002B010BD0020FBE7FB
S11317D0940000200533000079320000204B984229
S11317E017D0204B984224D01F4B984201D00020A0
S11317F07047012907D000292BD0022905D00329DD
S113180005D00020F4E71948F2E71948F0E7194831
S1131810EEE7012907D000291DD0022905D00329AC
S113182005D00020E4E71448E2E71448E0E7144850
S1131830DEE7012907D000290FD0022905D00329AA
S113184005D00020D4E70F48D2E70F48D0E70F486F
S1131850CEE70F48CCE70F48CAE70F48C8E7C046B1
S1131860000C004200100042000800420300050082
S113187003000600030007000200170003001E0017
S113188003001F00030017000300100003001900E9
S113189003000400020016000300160030B585B0F2
S11318A001AA0B4B32CB32C20300019A82420CD004
S11318B0029A824207D00020039A9A4201D005B0CE
S11318C030BD023002E0012000E00020C0B2F6E7A3
S11318D0903B0000F8B506AC277807AC267808AC36
S11318E0257809AC2478A446C043C0B2114C2070BA
S11318F0C943C9B26170D243D2B2A270DB43DBB236
S1131900E370FB43DBB22371F343DBB26371EB435C
S1131910DBB2A371084B1B78002B03D16346DB4376
S1131920DBB2E371054B9847054B98470122054B01
S11319301A70F8BD480300200E000020C92D0000D5
S1131940A52B0000F400002010B5312809D032285E
S113195012D00F4B98470F4B984701220E4B1A7029
S113196010BDC943C9B20D480170D243D2B242700E
S1131970DB43DBB28370ECE7C943C9B20748C170EB
S1131980D243D2B20271DB43DBB24371E1E7C0461A
S1131990C92D0000A52B0000F400002048030020FE
S11319A010B5FF290BD031280BD032280ED00C4BA8
S11319B098470C4B984701220B4B1A7010BD013904
S11319C0F1E7C943C9B2094B9971F0E7084B1B7899
S11319D0002BECD1C943C9B2044BD971E7E7C04627
S11319E0C92D0000A52B0000F400002048030020AE
S11319F00E00002010B5094BFF221A705A709A701D
S1131A00DA701A715A719A71DA71054B9847054B5D
S1131A1098470122044B1A7010BDC04648030020A9
S1131A20C92D0000A52B0000F400002070B50400AF
S1131A301B4B1B78002B04D10122194B1A70194B34
S1131A401870184E3378D800C01800190A21164BA4
S1131A5098473070FF231840431D9C4202DA431F0D
S1131A609C4209DC114A13780133DBB21370032B57
S1131A700DD00C4B187870BDC300181800190A213A
S1131A80094B984730700022084B1A70F1E7C300E5
S1131A90181800190A21044B9847024B1870E8E7FC
S1131AA0970000209B0000200137000099000020CF
S1131AB0F0B583B00024264E264F2AE0264B9847E3
S1131AC0264B1B78984204D31AD1254A1378013344
S1131AD01370244B1B78002B03D0234B1A7801ABD3
S1131AE0DA70224B1B78002B20D0214A1388013353
S1131AF09BB21380FA22920093421CD003B0F0BD33
S1131B000022174B1A70154B1870E2E70134042CAD
S1131B10EBD02500A05DB847C0B201ABE054E3B2FE
S1131B20032BCBD0114B1B78002BEFD101ABE35C23
S1131B30104A5355EAE701220A4B1A70074B1978E9
S1131B40094A117000210A4A118000221A70D5E74F
S1131B509C3B0000051C00002D1A00009A00002088
S1131B609600002098000020EC000020ED000020EA
S1131B709C000020F402002010B58CB068461A4B7B
S1131B8098470220194B9847194B186001236A465D
S1131B9053708022920069464A80FB3AFF3A0A73E6
S1131BA0C0225201CA8130220A716A468B74114CD8
S1131BB011492000114B98472268537E5BB2002BD9
S1131BC0FBDB802109020E4B19600F2393751376FA
S1131BD0137802210B431370064B1A68537E5BB2D1
S1131BE0002BFBDB0CB010BDB51100002139000047
S1131BF0A00000204802002000200042FD11000047
S1131C0000E100E030B52D4B19684B7E5BB2002B30
S1131C10FBDB0B691F229343184308614B7E5BB2C5
S1131C20002BFBDB4B7E5BB2002BFBDB0B7B02222E
S1131C3013430B734B7E5BB2002BFBDB01200425AB
S1131C40022401E010420AD10B7EDBB202001A40EA
S1131C501D4200D022431C42F4D02A43F2E70A7EFC
S1131C60D2B201231340500701D502200343920747
S1131C7001D504221343DB0703D4114B1B681888D6
S1131C8030BD4B7E5BB2002BFBDB0D4B1B684A8BDC
S1131C901A800A4B196801230B760A7ED2B21340CC
S1131CA0500701D502200343920701D504221343B0
S1131CB05B07E2D502230B76DFE7C046480200202B
S1131CC0A000002010B5014B984710BD791B0000FF
S1131CD0054B1A68022193681942FCD1136802214A
S1131CE00B4313607047C0466802002030B5ABB0A8
S1131CF01A4D01AC29002000194B98470223E372C6
S1131D00184A62602376002323756375A375E3750F
S1131D10E3610122982162549439A1651249A167B3
S1131D202362992162549439E1651049E167636241
S1131D309A216254943921660D487A316050A36225
S1131D409B33E254943B63660A4A7D33E25022009B
S1131D5029000948094B98472BB030BD00140042B4
S1131D609D1F0000409C00000500040005000500C4
S1131D70050006000500070068020020D9200000C5
S1131D8010B5014B984710BDED1C000070B50D0057
S1131D9014001E002C4B1B78DBB2552B3BD9FF28BB
S1131DA03AD0DC231B015843FE21284B9847A0233B
S1131DB0DB00C21800212648264B9847FF2D31D05E
S1131DC0DC2000016843FE21204B9847A023DB0060
S1131DD0C21801211E481F4B9847FF2C28D0DC2035
S1131DE000016043FE21194B9847A023DB00C21871
S1131DF002211748174B9847FF2E1FD0DC20000103
S1131E007043FE21114B9847A023DB00C218032125
S1131E100F48104B984770BD002200210C480D4B11
S1131E209847CBE70022012109480A4B9847D4E799
S1131E30002202210648074B9847DDE700220321D0
S1131E400348044B9847E6E7EC0000200137000004
S1131E50680200206124000010B5FF23FF22FF2147
S1131E60FF20014CA04710BD8D1D000010B5334B61
S1131E701B78DBB2552B27D932282CD013D9332821
S1131E803FD0342820D1FF2951D0DC200001484321
S1131E90FE212B4B9847A023DB00C21803212948BD
S1131EA0294B984710E031280ED1FF290DD0DC20B2
S1131EB000014843FE21224B9847A023DB00C218AF
S1131EC000212048204B984710BD002200211D48C6
S1131ED01D4B9847F8E7FF290DD0DC20000148434B
S1131EE0FE21174B9847A023DB00C2180121154897
S1131EF0154B9847E8E7002201211248124B9847F6
S1131F00E2E7FF290DD0DC2000014843FE210C4B01
S1131F109847A023DB00C21802210A480A4B9847BD
S1131F20D2E7002202210748074B9847CCE700225A
S1131F3003210448044B9847C6E7C046EC00002040
S1131F40013700006802002061240000002070476F
S1131F5030B504001720032900D930BD0E4DAA4224
S1131F60FBD82068002B0AD0802424038C4083688B
S1131F701C42FCD11C3189000A500020EDE780246A
S1131F8064008C4083681C42FCD1103189004118E4
S1131F904A600020E1E7C046FFFFFF000023036022
S1131FA04C4A42608372C372037343720372C36107
S1131FB0036243628362037543758375C375037655
S1131FC04376037443748374C3742C2283540132A0
S1131FD083540132835401328354013283540132D5
S1131FE083540132835401328354013283540132C5
S1131FF083540132835401328354013283540132B5
S113200083540132835401328354013283540132A4
S11320108354013283540132835401328354013294
S11320208354013283540132835401328354013284
S11320308354013283540132835401328354013274
S11320408354013283540132835401328354013264
S11320508354013283540132835401328354013254
S11320608354013283540132835401328354013244
S1132070835401328354013283544132835483653F
S1132080836701328354C365C36701328354036693
S11320901A3A83501B3283544366173A83501832DA
S11320A083548366143A835015328354C366113AB9
S11320B083501232835403670E3A83500F32835491
S11320C043670B3A835001210C328154013283540B
S11320D07047C046FFFFFF00F0B5DE4657464E4648
S11320E04546E0B58DB006000C0015000800CD4B48
S11320F098470300CC490A6A202002430A622268F6
S11321000438920706D50DB03CBC90469946A246C9
S1132110AB46F0BD226801271740F4D1C34A053805
S113212029689142EFD869689142ECD8E9699142F3
S113213000D98BE1296A914200D989E1696A914207
S113214000D987E1A96A914200D985E12A7C013A44
S113215050425041020601926A7C012A31D0AA7C85
S1132160012A34D0EA7C012A37D0A122AA5C002AB1
S113217004D0802212010199114301912A7A511E3F
S11321808A41920003926A7A012A2CD03522AA5CF1
S1132190032A00D962E12C21695C0F2900D95DE191
S11321A0287B0490E87A05902D208246AA440020DA
S11321B00297844606960E00A0465446A946079305
S11321C047E080229204019911430191C7E78022DC
S11321D0D204019911430191C4E7802212050199A7
S11321E011430191C1E7039911430391CEE7920290
S11321F0C0252D012A4032430D7903262E40324357
S113220055462A434E797601602535402A438D7917
S11322102D02C026B60035402A43CD792D03E02691
S1132220F60135402A43104303431F4308AB62467B
S113223008201B189F50042A28D08A7C032A00D91E
S11322400CE14E7A0A3404239A46D4440F2E00D962
S113225004E13606F0231B051E40210025782D04D9
S1132260FF231B041D40AA4663788020002B00D165
S113227002988F780823002F00D1029BCF78BB46A9
S113228010275D46002DB2D1029FB0E7069E44465A
S11322904D46079B4846503049464131002280272D
S11322A07F02BC460127B9460227FF37BA461F0002
S11322B01300A0463C0007E0574697403B430132D9
S11322C001300231082A0ED00778002F02D0674669
S11322D097403B430F78002FF1D0022FECD04F46AC
S11322E097403B43EBE722004446984613006A7E3E
S11322F0120130211140287E07220240114300229E
S1132300802040020F0002E00132042A07D0A918FD
S1132310097D0029F8D0010091400F43F4E7B94644
S1132320321D30003430002102C29042FCD1002220
S11323307263B2639B003E4A9E503460A023EA5C01
S1132340643BF25409A9AB7A0B701120394B9847BE
S11323501120394B98472F0098372E005836782390
S11323609A46AA44773B9B46230054469A4603E088
S113237001370436B44214D03B78002BF8D008ABB4
S11323805A469A70002308AAD37013002022B21868
S113239012781A705A465A7030781900274B9847A9
S11323A0E6E75446049B1B03059A12021343019A61
S11323B0134323600422A3681A42FCD1FF23237130
S11323C00422A3681A42FCD16B461B7B63710A9BEF
S11323D0E3600B9B23614346A361194AA36813423C
S11323E0FCD14B46E3631022A3681A42FCD12B684C
S11323F06363144AA3681342FCD16B6823641C35DD
S11324000021114802008A40A3681A42FCD104CD7D
S11324100B0010339B00E3185A6001310429F1D1F9
S1132420002070E64D1F000000040040FFFFFF0085
S1132430A80200200533000079320000FD330000BB
S113244040000200800004000001080017205AE642
S1132450172058E6172056E6172054E6172052E6B0
S113246010B53C23C35C014CA04710BD511F0000B4
S1132470F0B5C64600B580000E4BC7583B68DE6A0F
S1132480BB6B7A6B13401E4000240B4B984602E052
S11324900434302C0AD04346E5583542F8D03B1971
S11324A05B68380098473B68DD62F1E704BC9046FE
S11324B0F0BDC046A8020020A03B000010B50020DB
S11324C0014B984710BDC04671240000064B98424A
S11324D008D0064A0023904201D018007047013307
S11324E0DBB2FAE70023FBE700180042001C0042BD
S11324F0F0B585B004000D0016000800824B984723
S1132500070003AB12221A705A7002AB2E321A80E3
S113251040325A800023A360E36023616361237621
S113252063768200794BD4502560B378082B06D0AB
S113253023712B880520DB0705D505B0F0BD1720D6
S1132540FA07FAD4F4E7EB7B1730DB06F5D42B88D3
S11325509B07F2D4337C002B00D07AE0337F002B2E
S113256000D082E06A49086A7A0002ABD35A034376
S11325700B62B378082B00D187E033786A46137076
S113258003ABDF5D69463800624B98473800624B05
S113259098473189B3880B43B178B2791143194311
S11325A07378002B02D080231B0119432268D37B4C
S11325B05BB2002BFBDB2980717B4B1E99418900A8
S11325C0B37B002B01D0012319432268D37B5BB278
S11325D0002BFBDBFF232B71002905D02268D37B62
S11325E05BB2002BFBDB6971B17AF37A002B01D06B
S11325F010231943337B002B01D020231943226875
S1132600D37B5BB2002BFBDBA9712268D37B5BB26B
S1132610002BFBDB2379042B3FD0082B5ED0172043
S1132620002B00D089E7D37B5BB2002BFBDB338D1F
S11326302B822268D37B5BB2002BFBDB738D2B8355
S11326402268D37B5BB2002BFBDBB38D6B83002052
S113265073E701A901238B700022CA70327E0A70CD
S11326604B70307D2D4B984778E701A901238B707F
S11326700022CA702432B21812780A704B701F33C9
S1132680F3181878254B98476CE7086A7A1C5200AF
S113269002ABD35A03430B626FE7D37B5BB2002BCD
S11326A0FBDB2823F35C2B742268D37B5BB2002B07
S11326B0FBDB2923F35C2B752268D37B5BB2002BF5
S11326C0FBDB2A23F35C2B762268D37B5BB2002BE3
S11326D0FBDB2B23F35C6B7600202EE7D37B5BB212
S11326E0002BFBDBB36A2B612268D37B5BB2002B2C
S11326F0FBDBF36AAB612268D37B5BB2002BFBDBB1
S1132700336BEB61002018E7CD240000AC020020FD
S1132710000400400533000079320000FD3300005E
S1132720931C9B001950022A09D0032A0CD00123C0
S113273093401A00037E1343037600207047037E00
S1132740102213430376F8E7037E20221343037613
S1132750F3E70000F8B5DE4657464E464546E0B579
S11327608000A64BC45823689B7B227E617E114067
S11327701940CB0600D486E0A14B1B78002B7CD1FA
S1132780A04B1B78A04A1278DBB2934211D09F4829
S11327900378DBB25A1CD2B202709D4AD25CD2B228
S11327A0012393409B4A1360964A13780133DBB2AA
S11327B01370944B1B78944A1278DBB293425FD225
S11327C0904D2B78013B9448C25CD2B2934B1A7063
S11327D02B78DBB2C35CDBB2914803709A4236D1EA
S11327E02878C0B2884B1B78013B98423CDC874E6A
S11327F0874B98462800884D884B9C46884F8246D4
S1132800814B99463378DBB25A1CD2B232704246BD
S1132810D25CD2B2012393407E4A13600378DBB2C8
S1132820EA5CD2B263461A7003780133DBB20370F8
S1132830EB5CDBB23B709A4209D152461278D2B2B9
S113284093464A461278013A9345DBDD1A00FF2B82
S11328500CD074480278002AFCD1734A13706F4B71
S11328601A78724B1A700BE01300F0E76D48037886
S1132870002BFCD16D4B1A7002E00022604B1A70E1
S1132880102322689373CB0700D4A6E0684A137818
S11328900133DBB21370674B1B78002B25D0664ADB
S11328A013780133DBB21370644A12789A421CD253
S11328B00022614B1A70624B1A78D2B2614B1B78BA
S11328C09A4234D25E4A12789B1A1801181A800070
S11328D050215D4B98474130584B18706922594B31
S11328E01A708022D205594B1A60514B1B78DBB207
S11328F0012B05D90122564B1A7000224C4B1A7039
S1132900544A554B1A60554B1B78002B4BD0544BF3
S11329101B78002B16D100223B4B1A700023514A1E
S11329209046394894463C4F4F4E394D2DE06E2227
S1132930444B1A702D3A414B1A708022D205354B04
S11329401A60D2E70022464B1A702068474B98471A
S1132950474B1B5C1F221A4001239340454A1360D6
S1132960637E10221343637610232268537301336A
S113297022689373CFE76146895CC9B2B954B15CEC
S1132980C9B2A9540133082B0AD01A004146C95CC4
S1132990C9B2FF29EFD001780131C9B20170EAE769
S11329A000222E4B1A700023164A1370174A137014
S11329B0194B1978C9B2FF2915D01A4A1378002B7C
S11329C0FCD1194B1970174A1378002BFCD1002243
S11329D0164B1A70236801329A733CBC9046994690
S11329E0A246AB46F8BD01221D4B1A700F32236874
S11329F01A73637E93436376E5E7C046AC02002016
S1132A0009000020AC00002008000020B8000020CD
S1132A10B000002018440041A4000020AE000020B3
S1132A20AD0000200F180042181800421018004290
S1132A30F00000200E000020B90000200A00002051
S1132A40EC0000200B000020013700001C44004172
S1132A50EF0000200083038814440041F4000020A8
S1132A60AF000020080300202C030020CD24000028
S1132A70D03B000000E100E010B50020014B984776
S1132A8010BDC0465527000010B50120014B9847E2
S1132A9010BDC046552700007047000030B50A4BF2
S1132AA01B78002B0CD1094C094D2560094B0022E1
S1132AB01A6065605A60A5609A600132024B1A7010
S1132AC08000024BC15030BDBA000020BC00002081
S1132AD0992A0000B402002010B582B001AC092389
S1132AE02370013363700133A370024B984720565F
S1132AF002B010BD9D18000010B5024B1B680020E9
S1132B00984710BDBC00002010B5024B5B68012043
S1132B10984710BDBC00002010B5024B9B680220F2
S1132B20984710BDBC00002070B50022104B1A70ED
S1132B30002310491F25104E0D4C0AE00D4908E0F2
S1132B4023780133DBB223700F2B10D800211F2B05
S1132B50F4D9280018400122824008691042EFD0BD
S1132B600A619B009B59002BEAD09847E8E770BDA7
S1132B70C0020020001800400802002000B583B005
S1132B8001AB80221A700A785A704A789A708A784F
S1132B90DA701900014B984703B000BDFD33000003
S1132BA070477047F0B5C64600B584B00023234C87
S1132BB002A82349E25CC254CA5C6D46EA5401335C
S1132BC0082BF7D1013B9C4602AD1AE00133DBB27E
S1132BD01A00BB420EDA6946885C511C6C46645C80
S1132BE0A042F3D96E46B4547054A85C6C5CAC54E7
S1132BF06854EBE701235B429846C4446346002BC8
S1132C0005D0674600220023002FE4DCF2E701220E
S1132C100C4B1A70002302AC0B480C491A5DC254C9
S1132C206A469A5CCA540133082BF7D10022054B3B
S1132C301A7004B004BC9046F0BDC04624030020C2
S1132C4048030020EE0000202C030020080300208D
S1132C5010B58EB001AA0023002113709371138163
S1132C60002050709172D172117391735173117469
S1132C70536193611177136253621385538593856E
S1132C80C023DB00938004239370FF212533D154A8
S1132C90074C08492000084B98472268D37B5BB255
S1132CA0002BFBDB138802210B4313800EB010BDF5
S1132CB0C402002000180042F124000010B50122D3
S1132CC002490348034B984710BDC046008303C81C
S1132CD0004400412D34000030B583B001AC012321
S1132CE063700022A270237021000F200E4DA847AC
S1132CF021001020A84721001120A8472100082006
S1132D00A84721000920A84721001B20A84721002B
S1132D101F20A84721001E20A847044B9847044AB7
S1132D20044B5A6103B030BD7D2B0000BD2C000064
S1132D30008303C80044004170B5054D00220549D5
S1132D402800054CA047022204492800A04770BD72
S1132D50C4020020A32B000021270000A12B0000A7
S1132D60F8B5CE46474680B5134C2068134B9946B8
S1132D709847134B98461B5C1F26334001252A00B5
S1132D809A40104F3A60637E0122134363762368AE
S1132D905D731800C84743461B5C1E40B5403D6048
S1132DA0637E102213436376236810225A730CBC8B
S1132DB090469946F8BDC046C4020020CD240000C8
S1132DC0D43B000000E100E0084B0F221A700132EE
S1132DD05A7001329A70093ADA7001321A71123259
S1132DE05A7104329A71013ADA717047240300204F
S1132DF0054BFF221A705A709A70DA701A715A7160
S1132E009A71DA717047C0464803002010B5034B2D
S1132E109847034B9847034B984710BDC92D0000B2
S1132E20F12D0000A52B000010B5044B9847044B6E
S1132E309847044B9847044B984710BD512C000009
S1132E40D92C00000D2E0000392D00007047000021
S1132E500C4B1B68002B06D1EFF31083002B07D01B
S1132E600022094B1A70074A136801331360704734
S1132E7072B6BFF35F8F0022044B1A700132024B0B
S1132E801A70F0E7C8000020CC0000200C000020DD
S1132E90084B1A68013A1A601B68002B09D1064BCB
S1132EA01B78002B05D00122044B1A70BFF35F8FEF
S1132EB062B67047C8000020CC0000200C0000203F
S1132EC010B5082803D880001B4B1B589F460020D0
S1132ED030E01A4B18692DE0194B1B6A9B059B0FB8
S1132EE01848D84026E0154B586923E0134B1B685B
S1132EF000209B071ED512491022CB681A42FCD031
S1132F000E4B1B685B0701D40F4813E000200F4BE6
S1132F1098470A4B9B681B041B0C58430AE0502338
S1132F20074AD35C00205B0704D5044BD86801E052
S1132F308020000210BDC046D83B0000D000002015
S1132F400008004000127A00006CDC02213300000B
S1132F5070B50C490B6A04788578407801221040DA
S1132F6080014026B34303432A40D2018020834397
S1132F7013430322224012020348034013430B620B
S1132F8070BDC04600080040FFFCFFFF082803D8BE
S1132F908000254B1B589F46172044E0234A136AA0
S1132FA002210B43136200203DE0204A9369022171
S1132FB00B439361002036E01C4A138A02210B4321
S1132FC0138200202FE0194A938A02210B43938233
S1132FD0002028E016490B68022213430B60134BB0
S1132FE09A8419000E32CB681A42FCD0104A9168B8
S1132FF00E4BD96252689A6200229A8419001032E8
S1133000CB681A42FCD00A4B1B689BB2074A9384D4
S1133010002008E0054944228B5C022003438B54C2
S1133020002000E000207047FC3B00000008004046
S1133030D000002030B585B0C222D2001A4B9A606D
S11330401A4A53681E218B43536001236A46137046
S11330500024174DE0B26946A8470134182CF9D171
S113306003A800244470012585700470114B98470F
S11330700620114B9847114B9847114B1C725C72F8
S11330809C72DC7201956B465C7006236A46137071
S113309014725472694600200A4B984700200A4B68
S11330A0984705B030BDC0460008004000400041CC
S11330B005330000512F00008D2F0000CD3000009B
S11330C000040040F1300000A9310000064A936971
S11330D008210B4393610122044B1A7019000B78E9
S11330E01342FCD17047C04600040040000C00406D
S11330F070B5060004000D782D0205434B78002BB3
S113310002D08023DB021D434B7A002B02D08023A4
S11331101B031D434868012810D9431E184234D1AB
S1133120022830D90223002201325B009842FBD8E6
S113313012023243140080235B031D430B7A002BDD
S113314002D080239B031D43134A53785BB2002BA8
S1133150FBDB124B9847124B1E700F4A53785BB23D
S1133160002BFBDB0C4B9C601A0053785BB2002BEA
S1133170FBDB094A5368802149020B401D4355601B
S1133180084B984770BD0022D2E7040234438023E1
S11331909B021D43D2E7C046000C0040512E0000A4
S11331A0080C0040912E000010B504000B4A53781F
S11331B05BB2002BFBDB0A4B98470A4B1C70074A97
S11331C053785BB2002BFBDB044A516880235B021B
S11331D00B435360044B984710BDC046000C00409D
S11331E0512E0000040C0040912E000070B5040024
S11331F01A4A53785BB2002BFBDB194B9847194BE7
S11332001C70164A53785BB2002BFBDB134E7068BC
S1133210C004C00E144B98470500124B1C7076680E
S1133220F602F60F114B1C700C4A53785BB2002B5C
S1133230FBDB0A4B9C682402240C0D4B9847002EA0
S113324007D1012C07D9210028000A4B9847050013
S113325001E00134E540280070BDC046000C004088
S1133260512E0000040C0040C12E0000080C004048
S1133270912E0000ED35000010B50400064B984770
S1133280064B1C70064A53888021C9010B435380A6
S1133290044B984710BDC046512E0000020C00405C
S11332A0000C0040912E000010B504000F4B98470D
S11332B00F4B1C700F4A53881B05180F53880E4977
S11332C00B40538053880D490B40538011008022DA
S11332D0D2014B881342FCD106494A8803020648AE
S11332E0024013434B80064B984710BD512E0000FB
S11332F0020C0040000C0040FFF0FFFFFFBFFFFF87
S1133300912E000010B50C7824020443024B984718
S1133310A4B2024B5C8010BDA9320000000C004036
S113332010B50400064B9847064B1C70064B5C888E
S11333302405240F054B98472000054B984710BDE2
S1133340512E0000020C0040000C0040912E0000A1
S1133350ED31000030B5D378002B35D11378802BB4
S113336029D01B0680246402234354780225AC43ED
S113337006D19478002C20D18024A40223434160F8
S11333805478013C012C1CD90D042D0CA024E40517
S11333902C431C4384620D0CD02424062C431C4370
S11333A08462D478002C22D15B031CD59378012B42
S11333B01ED0416117E00023D7E7C024E402234371
S11333C0DDE70D4C2340DFE741600C04240CA0230F
S11333D0DB05234383620C0CD0231B062343836247
S11333E0D378002B03D15378013B012B02D930BD94
S11333F08161F8E78160FAE7FFFFFBFF10B50A007F
S1133400C1090023002904D14309DB0105498C4685
S113341063441F242040012181401800024B984737
S113342010BDC0460044004155330000F0B5C64607
S113343000B5002301264024A046A44609E0C5188F
S113344040352C7867463C43E4B22C700133202B82
S11334500CD00C00DC402642F8D0012AEFD0C4186E
S1133460403425784746BD432570EFE704BC9046B9
S1133470F0BD704710B5054B9847054B9847054B71
S11334809847054B9847054B984710BD35300000C9
S11334904D2E000073340000FD160000733400004C
S11334A0FEE7000010B5264A264B9A4211D01A00B6
S11334B0254B9A420DD2254A03339B1A9B080133AC
S11334C09B0000221F481E498C58845004329A42A3
S11334D0FAD11F4A1F4B9A420AD2D3431D495B18A3
S11334E003218B4304339B18002102C29342FCD175
S11334F0194AFF21194B8B439360FD3990235B00DC
S1133500174AD150174B9A7B2E318A4320210A4304
S11335109A739A7B0C218A4308210A439A739A7BF3
S113352003218A4302210A439A730F4A5368802174
S11335300B4353600D4B98470D4B9847FEE7C0462D
S1133540403C000000000020740000200400002023
S1133550740000205403002000ED00E00008000087
S1133560007000410048004100400041D93800008B
S1133570993500000300064A1268002A04D0044A60
S11335801068C318136070470249014A1160F6E7D6
S1133590E80000205807002070B50A4B98470A4BF2
S11335A098470A4B98470A4B98470A4B98470A4B47
S11335B098470A4B98470A4B98470A4D0A4CA84724
S11335C0A047FCE77534000075110000292E0000A7
S11335D0C51C0000811D0000D11C0000612D0000ED
S11335E051100000B11A0000A10D00000022430890
S11335F08B4274D303098B425FD3030A8B4244D3B7
S1133600030B8B4228D3030C8B420DD3FF220902F8
S113361012BA030C8B4202D31212090265D0030BB7
S11336208B4219D300E0090AC30B8B4201D3CB03AD
S1133630C01A5241830B8B4201D38B03C01A5241EF
S1133640430B8B4201D34B03C01A5241030B8B42F1
S113365001D30B03C01A5241C30A8B4201D3CB02DC
S1133660C01A5241830A8B4201D38B02C01A5241C1
S1133670430A8B4201D34B02C01A5241030A8B42C4
S113368001D30B02C01A5241CDD2C3098B4201D3DC
S1133690CB01C01A524183098B4201D38B01C01A5A
S11336A0524143098B4201D34B01C01A52410309D1
S11336B08B4201D30B01C01A5241C3088B4201D380
S11336C0CB00C01A524183088B4201D38B00C01A2D
S11336D0524143088B4201D34B00C01A5241411A54
S11336E000D20146524110467047FFE701B5002061
S11336F000F0F0F802BDC0460029F7D076E7704725
S113370003460B437FD4002243088B4274D303093E
S11337108B425FD3030A8B4244D3030B8B4228D3DF
S1133720030C8B420DD3FF22090212BA030C8B4205
S113373002D31212090265D0030B8B4219D300E0A5
S1133740090AC30B8B4201D3CB03C01A5241830B2A
S11337508B4201D38B03C01A5241430B8B4201D3DA
S11337604B03C01A5241030B8B4201D30B03C01A03
S11337705241C30A8B4201D3CB02C01A5241830A7D
S11337808B4201D38B02C01A5241430A8B4201D3AC
S11337904B02C01A5241030A8B4201D30B02C01AD6
S11337A05241CDD2C3098B4201D3CB01C01A52413D
S11337B083098B4201D38B01C01A524143098B42C6
S11337C001D34B01C01A524103098B4201D30B01AF
S11337D0C01A5241C3088B4201D3CB00C01A5241D4
S11337E083088B4201D38B00C01A524143088B4299
S11337F001D34B00C01A5241411A00D20146524132
S1133800104670475DE0CA0F00D04942031000D350
S11338104042534000229C4603098B422DD3030AA5
S11338208B4212D3FC22890112BA030A8B420CD3B5
S1133830890192118B4208D3890192118B4204D3DE
S113384089013AD0921100E08909C3098B4201D35E
S1133850CB01C01A524183098B4201D38B01C01A98
S1133860524143098B4201D34B01C01A524103090F
S11338708B4201D30B01C01A5241C3088B4201D3BE
S1133880CB00C01A524183088B4201D38B00C01A6B
S11338905241D9D243088B4201D34B00C01A524142
S11338A0411A00D20146634652415B10104601D3CF
S11338B04042002B00D54942704763465B1000D359
S11338C0404201B5002000F005F802BD0029F8D0FF
S11338D016E770477047C04670B500260C4D0D4C76
S11338E0641BA410A64209D1002600F099F90A4DE0
S11338F00A4C641BA410A64205D170BDB300EB585A
S113390098470136EEE7B300EB5898470136F2E7E3
S11339102C3C00002C3C00002C3C0000303C0000FF
S113392010B5034B0100186800F016F810BDC0462E
S113393010000020002310B59A4200D110BDCC5CC9
S1133940C4540133F8E703008218934200D170474E
S113395019700133F9E70000032370B5CD1C9D43B2
S1133960083506000C2D1ED20C25A9421DD83000A6
S113397000F062F8254A14682100002919D1244C6A
S11339802368002B03D1300000F044F820602900A4
S1133990300000F03FF8431C2CD10C23300033607E
S11339A000F04BF803E0002DDFDA0C233360002035
S11339B070BD0B685B1B1AD40B2B03D90B60CC189E
S11339C0256003E08C420ED163681360300000F080
S11339D034F8200007220B30231D9043C31AE7D08C
S11339E05A42E250E4E74B6863600C00EEE70C00D7
S11339F04968C2E70323C41C9C43A042E0D0211AB7
S1133A00300000F007F8431CDAD1C6E7F8000020C4
S1133A10FC000020002370B5064C0500080023605C
S1133A20FFF7A8FD431C03D12368002B00D02B60B3
S1133A3070BDC0465003002070477047FC0D000065
S1133A40DE0D0000DE0D00000A0E0000180E00005E
S1133A502E0E0000440E0000520E0000600E000006
S1133A606E0E00007C0E0000BC0E0000C6130000A9
S1133A7012160000121600001216000012160000A2
S1133A801216000012160000121600001216000092
S1133A901216000012160000121600001216000082
S1133AA0121600001216000012160000AE130000D9
S1133AB01216000012160000121600001216000062
S1133AC01216000012160000121600001216000052
S1133AD01216000012160000121600001216000042
S1133AE0121600001216000012160000BE13000089
S1133AF01216000012160000121600001216000022
S1133B001216000012160000121600001216000011
S1133B101216000012160000121600001216000001
S1133B20121600001216000012160000B613000050
S1133B30CE13000096130000A61300009E1300008D
S1133B400200000003000000040000000500000063
S1133B5006000000070000000E0000000F00000037
S1133B600A0000000B000000FFFF0000FFFF000040
S1133B70FFFF0000FFFF0000FFFF0000FFFF000049
S1133B80FFFF0000FFFF0000FFFF0000FFFF000039
S1133B9000080042000C0042001000420609080020
S1133BA00100000002000000040000000800000002
S1133BB00010000000200000004000000080000011
S1133BC000000100000002000000040000000800E2
S1133BD00D0E00000D0E0000D22E0000CE2E0000AF
S1133BE0CE2E0000302F0000302F0000E62E000003
S1133BF0D82E0000EC2E00001E2F0000B82F00006D
S1133C00982F0000982F000024300000AA2F0000F5
S1133C10C62F00009C2F0000D42F00001430000099
S1133C20F8B5C046F8BC08BC9E467047B50800000D
S1133C30F8B5C046F8BC08BC9E4670478D08000025
S1133C40401F0000080000000801416E010101004E
S1133C50140000200000000000000000000000002C
S1133C600000000000000000000000000000000050
S1133C700000000000000000000000000000000040
S1133C800000000000000000000000000000000030
S1133C900000000000000000000000000000000020
S1133CA00000000000000000000000000000000010
S1073CB0000000000C
S90334A523
